:0400000083EF3CF05E
:10790600000EF86E0001B3EF3CF001040210D8A49B
:1079160003D0829A828C120001500210D8A4120061
:10792600828A829C120001C083FF82948288420E62
:10793600E82EFED700D08298420EE82EFED700D061
:107946001200016E01C083FF82848288420EE82EF7
:10795600FED700D08298420EE82EFED700D0120045
:10796600000E0F013A6F000E0F013B6F000E0F0164
:10797600386F000E926E000E946E000E956E000E1D
:107986000B6EB80E0A6E000E026E3F0E016E96EC7E
:107996003CF00AC001F00BC002F096EC3CF0000E81
:1079A600026E400E016E96EC3CF0000E076E000E65
:1079B600066E000E096E010E086E09BE0AD0095049
:1079C60006E1090E085CD8B000EF00F002D000EF27
:1079D60000F0000E026E010E016E88EC3CF00AC04B
:1079E60001F00BC002F096EC3CF0000E026E400E69
:1079F600016E96EC3CF006C00CF007C00DF0D9D035
:107A0600400E0C180D10D8A413D0000E026E000EF6
:107A1600016E88EC3CF00AC001F00BC002F096EC57
:107A26003CF0000E026E400E016E96EC3CF0B1D0BA
:107A3600C00E0C180D10D8A413D0000E026E000E46
:107A4600016E88EC3CF00AC001F00BC002F096EC27
:107A56003CF0000E026E400E016E96EC3CF099D0A2
:107A6600400E0C1816E10D04D8A413D0000E026EB9
:107A7600000E016E88EC3CF00AC001F00BC002F06B
:107A860096EC3CF0000E026E400E016E96EC3CF059
:107A960080D0C00E0C1816E10D04D8A413D0000E29
:107AA600026E000E016E88EC3CF00AC001F00BC0BD
:107AB60002F096EC3CF0000E026E400E016E96EC63
:107AC6003CF067D0400E0C1817E1020E0D18D8A432
:107AD60013D0000E026E000E016E88EC3CF00AC058
:107AE60001F00BC002F096EC3CF0000E026E400E68
:107AF600016E96EC3CF04DD0C00E0C1817E1020E4C
:107B06000D18D8A413D0000E026E000E016E88EC7C
:107B16003CF00AC001F00BC002F096EC3CF0000EFF
:107B2600026E400E016E96EC3CF033D0400E0C18FF
:107B360017E1030E0D18D8A413D0000E026E000E26
:107B4600016E88EC3CF00AC001F00BC002F096EC26
:107B56003CF0000E026E400E016E96EC3CF019D021
:107B6600C00E0C1816E1030E0D18D8A412D0000E84
:107B7600026E000E016E88EC3CF00AC001F00BC0EC
:107B860002F096EC3CF0000E026E400E016E96EC92
:107B96003CF00CC006F00DC007F0FF0E0C24F66E8C
:107BA6007B0E0D20F76E0800F550A4EC3CF00C4A55
:107BB6000D2A08C003F009C004F0070ED89003365A
:107BC6000436E82EFBD703500C5C0D50800A056E78
:107BD6000450800A0558D8A013D7010E0A240A6E4D
:107BE600000E0B200B6E084A092A09BEF2D6095070
:107BF60001E1E7D600EF00F000000000C000000041
:107C060000C000008040404040000080404080802E
:107C16000000000040F8444404404040800000005A
:107C2600C04040404080404040408000C40000FCCE
:107C36000000C400000000404040800000808040FA
:107C460000000000008040404040C000000080402E
:107C560000C04040404080404040408000FC4040E2
:107C660040800000008040404080000000FC000092
:107C76008040404040000000000000000F1010103F
:107C8600101F00000912120C00000F121212120B24
:107C960002000000001F00000C1211111F0000005E
:107CA6001F000000001F000000001F001F00001F33
:107CB60000001F0000000C1211111F00001F000021
:107CC60000000000000912120C0081C638060100EF
:107CD600001F000000001F000000001F001F101002
:107CE60010080700000F101010080700001F000002
:107CF6000912120C00000000000000000000000045
:107D06000000000000000040E0F0F060000000000D
:107D1600000000000000000000000000000000005D
:107D26000000000000F0F8F8F0000000000000007D
:107D3600000000000000000000000000000000003D
:107D4600000000000000000000000000000000002D
:107D560000000000000000000000E0A0202020201D
:107D66002020202020202020202020202020A0E0CD
:107D76000000000000000000000000000000C0E05D
:107D8600703038F8FCFCFEFEFCF9800000000000B4
:107D960000000000000000000000000000000000DD
:107DA6000000000000FFFFFFFF00000000000000D1
:107DB60000000000000000000000000000000000BD
:107DC60000000000000030F8FCFCFCF83800000061
:107DD60000000000000000000000FF00010204880F
:107DE600D06040404040404060D08804020100FF1F
:107DF60000000000000000000000000000001F1F3F
:107E06000000FCFFFFFFFFC7010307060E0C1C184E
:107E160018000000000000000000000080C0C0E064
:107E2600F0F0F8F8FCFFFFFFFFFEFCF8F8F0F0E0DA
:107E3600C0C080000000000000000000000000003C
:107E460000000000008000FFFFFFC0C0C0C0C0C02F
:107E5600C0C000000000000000001F181C1613110F
:107E6600101010101010101010101113161C181FDF
:107E7600000000000000000000000000000000C03C
:107E8600F8FF7F1F0703071FFFFEF8C00000000072
:107E9600000000000070787C3E3E3F1F1F1F0F0F42
:107EA6000F07070703FFFFFFFF03030707070F0F70
:107EB6000F1F1F1F3F3E3E7C7870000000000080B1
:107EC600F0FC1C060703001F1F1F191919191919A1
:107ED60019191818F8F8F0800000000000000000DA
:107EE600000000000000000000000000000000008C
:107EF60000000000000000000000000000101E1F2F
:107F0600070100000000000000071F1F1C00000002
:107F1600000000000000000000000000000000005B
:107F2600008080C0E0FFFF7FFFF0E0C0808000009F
:107F36000000000000000000000000000000000338
:107F46001F3EF8F0C0808000000000000000000026
:107F560080C0E0F070073FFFFCE06060703000001A
:107F6600000000000000000000000000000000000B
:107F760000000000000000000000000000000000FB
:107F860000000000000000000000000000000000EB
:107F960000000000000000000000000000000000DB
:107FA60000030301010000000000010103030000BB
:107FB60000000000000000000000000000000000BB
:107FC6000000000101010303030606060607070376
:107FD6000303010000000000000000000000000094
:107FE600000000000000000000000000000000008B
:0A7FF6000000000000000000000081
:020000040020DA
:08000000FFFFFFFFFFFFFFFF00
:020000040030CA
:0E000000FF0A193CFFB580FF0FC00FE00F4054
:00000001FF
